:100000000C9461040C947E040C947E040C947E0485
:100010000C947E040C947E040C947E040C947E0458
:100020000C947E040C947E040C947E040C947E0448
:100030000C947E040C947E040C947E040C947E0438
:100040000C941F050C947E040C947E040C947E0486
:100050000C947E040C947E040C947E040C947E0418
:100060000C947E040C947E0400000000000000004C
:100070007E8195B1B195817E7EFFEBCFCFEBFF7E88
:100080000E1F3F7E3F1F0E00081C3E7F3E1C0800D7
:1000900018BAFFFFFFBA180010B8FCFFFCB8100038
:1000A0000000183C3C180000FFFFE7C3C3E7FFFF58
:1000B000003C664242663C00FFC399BDBD99C3FF48
:1000C00070F88888FD7F070F004E5FF1F15F4E00EA
:1000D000C0E0FF7F05050707C0FF7F0505657F3F7F
:1000E000995A3CE7E73C5A997F3E3E1C1C080800A1
:1000F00008081C1C3E3E7F00002466FFFF662400AB
:10010000005F5F00005F5F00060F097F7F017F7F58
:1001100040DABFA5FD590302007070707070700066
:100120008094B6FFFFB694800004067F7F0604002B
:100130000010307F7F3010000808082A3E1C08009D
:10014000081C3E2A080808003C3C202020202000F3
:10015000081C3E08083E1C0830383C3E3E3C383007
:10016000060E1E3E3E1E0E060000000000000000AF
:1001700000065F5F06000000000707000707000099
:10018000147F7F147F7F1400242E6B6B3A120000C3
:10019000466630180C666200307A4F5D377A480048
:1001A0000407030000000000001C3E634100000043
:1001B0000041633E1C000000082A3E1C1C3E2A0829
:1001C00008083E3E080800000080E06000000000D3
:1001D000080808080808000000006060000000002F
:1001E0006030180C060301003E7F71594D7F3E00C0
:1001F00040427F7F40400000627359496F660000B3
:10020000226349497F360000181C16537F7F500037
:10021000276745457D3900003C7E4B497930000019
:10022000030371790F070000367F49497F360000CC
:10023000064F49693F1E000000006666000000008E
:100240000080E66600000000081C366341000000E4
:100250002424242424240000004163361C080000C8
:10026000020351590F0600003E7F415D5D1F1E00D5
:100270007C7E13137E7C0000417F7F49497F3600DE
:100280001C3E634141632200417F7F41633E1C006D
:10029000417F7F495D416300417F7F491D0103002C
:1002A0001C3E6341517372007F7F08087F7F00000E
:1002B00000417F7F41000000307040417F3F0100DE
:1002C000417F7F081C776300417F7F414060700061
:1002D0007F7F0E1C0E7F7F007F7F060C187F7F00C4
:1002E0001C3E6341633E1C00417F7F49090F0600AD
:1002F0001E3F21717F5E0000417F7F09197F6600EC
:10030000266F4D597332000003417F7F4103000087
:100310007F7F40407F7F00001F3F60603F1F0000E5
:100320007F7F3018307F7F0043673C183C67430075
:10033000074F78784F070000476371594D67730086
:10034000007F7F41410000000103060C183060006F
:100350000041417F7F000000080C0603060C0800E6
:10036000808080808080808000000307040000007F
:10037000207454543C784000417F3F484878300016
:10038000387C44446C280000307848493F7F400066
:10039000387C54545C180000487E7F4903020000FA
:1003A00098BCA4A4F87C0400417F7F08047C7800FA
:1003B00000447D7D4000000060E08080FD7D000005
:1003C000417F7F10386C440000417F7F4000000077
:1003D0007C7C18381C7C78007C7C04047C780000D1
:1003E000387C44447C38000084FCF8A4243C180089
:1003F000183C24A4F8FC8400447C784C041C1800AD
:10040000485C54547424000000043E7F44240000DF
:100410003C7C40403C7C40001C3C60603C1C00003C
:100420003C7C7038707C3C00446C3810386C440064
:100430009CBCA0A0FC7C00004C64745C4C6400007C
:1004400008083E7741410000000000777700000077
:100450004141773E08080000020301030203010046
:1004600070784C464C7870000E9F91B1FB4A0000AA
:100470003A7A40407A7A4000387C54555D19000041
:1004800002237555557D7B42217554547D7940007A
:10049000217555547C784000207457577C78400073
:1004A000183CA4A4E4400000023B7D55555D1B02AE
:1004B000397D54545D190000397D55545C18000095
:1004C00001457C7C410100000203457D7D43020023
:1004D00001457D7C40000000797D1612167D790073
:1004E00070782B2B78700000447C7C5555450000BB
:1004F000207454547C7C54547C7E0B097F7F4900CB
:10050000327B49497B320000327A48487A32000017
:10051000327A4A48783000003A7B41417B7A400089
:100520003A7A4240787840009ABAA0A0FA7A00005D
:1005300001193C66663C19013D7D40407D3D00004F
:10054000183C24E7E7242400687E7F4943662000A6
:100550002B2FFCFC2F2B0000FFFF09092FF6F8A022
:1005600040C088FE7F090302207454557D79400005
:1005700000447D7D410000003078484A7A32000016
:10058000387840427A7A40007A7A0A0A7A70000013
:100590007D7D19317D7D000000262F292F2F280019
:1005A00000262F292F26000030784D4560200000BE
:1005B000383808080808000008080808383800001B
:1005C0004F6F3018CCEEBB914F6F30186C76FBF943
:1005D0000000007B7B000000081C3622081C36222D
:1005E00022361C0822361C08AA005500AA00550015
:1005F000AA55AA55AA55AA55DDFFAA77DDAAFF7705
:10060000000000FFFF000000101010FFFF000000BE
:10061000141414FFFF0000001010FFFF00FFFF0084
:100620001010F0F010F0F000141414FCFC000000A6
:100630001414F7F700FFFF000000FFFF00FFFF00AA
:100640001414F4F404FCFC0014141717101F1F00FA
:1006500010101F1F101F1F001414141F1F00000074
:10066000101010F0F00000000000001F1F1010100C
:100670001010101F1F101010101010F0F01010109C
:10068000000000FFFF1010101010101010101010BC
:10069000101010FFFF101010000000FFFF141414C2
:1006A0000000FFFF00FFFF1000001F1F10171714AE
:1006B0000000FCFC04F4F41414141717101717149A
:1006C0001414F4F404F4F4140000FFFF00F7F7141A
:1006D00014141414141414141414F7F700F7F71462
:1006E000141414171714141410101F1F101F1F10A8
:1006F000141414F4F41414141010F0F010F0F0109A
:1007000000001F1F101F1F100000001F1F141414D3
:10071000000000FCFC1414140000F0F010F0F010C5
:100720001010FFFF10FFFF10141414FFFF14141417
:100730001010101F1F000000000000F0F01010103B
:10074000FFFFFFFFFFFFFFFFF0F0F0F0F0F0F0F031
:10075000FFFFFFFF0000000000000000FFFFFFFFA1
:100760000F0F0F0F0F0F0F0F387C446C386C4400C5
:10077000FCFE2A2A3E1400007E7E020206060000CD
:10078000027E7E027E7E020063775D496363000025
:10079000387C447C3C04040080FE7E20203E1E0009
:1007A0000406027E7C06020099BDE7E7BD990000C1
:1007B0001C3E6B496B3E1C004C7E7301737E4C00EB
:1007C00030784A4F7D390000183C243C3C243C18CA
:1007D00098FC643C3E273D181C3E6B4949000000D4
:1007E0007E7F01017F7E00002A2A2A2A2A2A000011
:1007F00044445F5F4444000040515B4E444000006D
:1008000040444E5B51400000000000FEFF0107061F
:1008100060E080FF7F00000008086B6B08080000A4
:10082000243612362436120000060F090F06000087
:100830000000001818000000000000101000000068
:10084000103070C0FFFF0101001F1F011F1E0000BC
:1008500000191D171200000000003C3C3C3C000049
:10086000000000000000000000000000240027003D
:100870002A0000000000250028002B0000000000D6
:1008800023002600290004040404040404040202D2
:1008900002020202030303030303010204081020FF
:1008A000408001020408102001020408102000000A
:1008B0000007000201000003040600000000000021
:1008C000000011241FBECFEFD8E0DEBFCDBF11E086
:1008D000A0E0B1E0EEE3FDE002C005900D92A4318E
:1008E000B107D9F711E0A4E1B1E001C01D92AD312B
:1008F000B107E1F70E948E060C949D060C9400004F
:100900008AE061E00E943A068AE061E00E94FB050D
:100910008CB580618CBD8CB580648CBD8DE061E050
:100920000E94FB058BE061E00E94FB0508950F9398
:100930001F93182F062F8AE060E00E943A061EBD22
:100940000DB407FEFDCF8EB50EBD0DB407FEFDCF75
:100950008EB58AE061E00E943A061F910F910895DA
:100960001F930E9480048BE067E00E94970489E057
:1009700060E00E9497048FE060E00E94970410E01E
:100980001F5F812F60E00E9497041830C9F78AE04A
:1009900067E00E9497048CE061E00E9497041F9139
:1009A00008950F931F93CF93DF93C0E0D0E0082FFB
:1009B00010E083E0000F111F8A95E1F7FE01E00FC0
:1009C000F11FE859FF4FE4919E012F5F822F6E2F98
:1009D0000E9497042196C830D10581F7DF91CF910D
:1009E0001F910F910895EF92FF920F931F93CF9352
:1009F000DF93EC017A018B010FC00E94D104C80182
:100A0000B7010E94670580E20E94D1046AE070E0AD
:100A100080E090E00E9467058991882371F7DF915B
:100A2000CF911F910F91FF90EF90089580E091E09A
:100A300044EF51E060E070E00E94F30408951F92DB
:100A40000F920FB60F9211242F933F938F939F9382
:100A5000AF93BF938091180190911901A0911A0151
:100A6000B0911B0130911C010196A11DB11D232FD6
:100A70002D5F2D3720F02D570196A11DB11D20931C
:100A80001C018093180190931901A0931A01B0934F
:100A90001B018091140190911501A0911601B09154
:100AA00017010196A11DB11D8093140190931501AA
:100AB000A0931601B0931701BF91AF919F918F91B1
:100AC0003F912F910F900FBE0F901F9018959B0193
:100AD000AC017FB7F8948091140190911501A09119
:100AE0001601B091170166B5A89B05C06F3F19F0BC
:100AF0000196A11DB11D7FBFBA2FA92F982F88275E
:100B0000860F911DA11DB11D62E0880F991FAA1FBC
:100B1000BB1F6A95D1F7BC012DC0FFB7F894809137
:100B2000140190911501A0911601B0911701E6B53D
:100B3000A89B05C0EF3F19F00196A11DB11DFFBF95
:100B4000BA2FA92F982F88278E0F911DA11DB11D97
:100B5000E2E0880F991FAA1FBB1FEA95D1F7861BF9
:100B6000970B885E9340C8F221503040404050407F
:100B700068517C4F211531054105510571F60895E5
:100B8000789484B5826084BD84B5816084BD85B568
:100B9000826085BD85B5816085BDEEE6F0E080812F
:100BA00081608083E1E8F0E0108280818260808350
:100BB000808181608083E0E8F0E0808181608083D3
:100BC000E1EBF0E0808184608083E0EBF0E0808105
:100BD00081608083EAE7F0E08081846080838081A7
:100BE000826080838081816080838081806880834F
:100BF0001092C1000895CF93DF93482F50E0CA01AF
:100C00008656974FFC0134914A57574FFA01849109
:100C1000882369F190E0880F991FFC01E859F74F8C
:100C2000A591B491FC01EE58F74FC591D49166237C
:100C300051F42FB7F8948C91932F909589238C932E
:100C4000888189230BC0623061F42FB7F8948C91AE
:100C5000932F909589238C938881832B88832FBF32
:100C600006C09FB7F8948C91832B8C939FBFDF9124
:100C7000CF910895482F50E0CA018255974FFC014B
:100C80002491CA018656974FFC0194914A57574FB9
:100C9000FA013491332309F440C0222351F1233067
:100CA00071F0243028F42130A1F0223011F514C065
:100CB0002630B1F02730C1F02430D9F404C080913F
:100CC00080008F7703C0809180008F7D80938000AB
:100CD00010C084B58F7702C084B58F7D84BD09C0F4
:100CE0008091B0008F7703C08091B0008F7D80939A
:100CF000B000E32FF0E0EE0FFF1FEE58F74FA59185
:100D0000B4912FB7F894662321F48C9190958923A0
:100D100002C08C91892B8C932FBF0895CF93DF93C2
:100D20000E94C0050E94B004C0E0D0E00E941605F9
:0E0D30002097E1F30E940000F9CFF894FFCF66
:100D3E003132333435363738393039383736353451
:040D4E00333200003C
:00000001FF
